:020000040800F2
:10000000380400203910000801100008031000080F
:100010000510000807100008091000080000000083
:100020000000000000000000000000000B100008AD
:100030000D100008000000000F100008111000084B
:1000400055100008591000085D10000861100008E4
:1000500065100008691000086D1000087110000894
:1000600075100008791000087D1000088110000844
:1000700085100008891000088D10000891100008F4
:1000800095100008991000089D100008A1100008A4
:10009000A5100008A9100008AD100008B110000854
:1000A000B5100008B9100008BD100008C110000804
:1000B000C5100008C9100008CD100008D1100008B4
:1000C000D5100008D9100008DD100008E110000864
:1000D000E5100008E9100008ED100008F110000814
:1000E000F5100008F9100008FD1000082DE9FC4784
:1000F0000400002C01D10120F6E12078C0076BD567
:10010000DFF8BC05016811F00C01042907D0016873
:1001100011F00C0108290CD10068C00309D5DFF8E3
:100120009C050068800357D56068002854D10120E1
:10013000DAE16068B0F5803F06D1DFF8800501683C
:1001400051F48031016026E0606800280AD1DFF8B0
:100150006C05016831F480310160016831F480215F
:10016000016018E06068B0F5A02F0AD1DFF84C05F7
:10017000016851F480210160016851F4803101600F
:1001800009E0DFF83805016831F480310160016869
:1001900031F480210160606800280ED000F0B0FAD0
:1001A0000500DFF818050068800315D400F0A8FAF0
:1001B000401B6528F5D3032096E100F0A1FA050065
:1001C000DFF8F8040068800306D500F099FA401BB8
:1001D0006528F5D3032087E12078800750D5DFF824
:1001E000E004016811F00C0F07D0016811F00C0158
:1001F000082914D10068C00311D4DFF8C0040168D5
:10020000890704D52169012901D001206CE1016829
:1002100031F0F801626951EAC201016030E0206901
:1002200000281AD00120DFF8AC14086000F068FA4A
:100230000500DFF888040168890706D400F060FA39
:10024000401B0328F5D303204EE1016831F0F8018B
:10025000626951EAC201016012E00020DFF8741403
:10026000086000F04DFA0500DFF8500400688007D0
:1002700006D500F045FA401B0328F5D3032033E1EF
:10028000207800072CD5A069002816D00120DFF8BF
:100290004814086000F034FA0500DFF83404006800
:1002A000800706D400F02CFA401B0328F5D3032066
:1002B0001AE1012000F0EEF912E00020DFF8181436
:1002C000086000F01DFA0500DFF8040400688007EC
:1002D00006D500F015FA401B0328F5D3032003E1EF
:1002E0002078400740F18E800027DFF8F083D8F8AF
:1002F0000000C0000DD4D8F8000050F08050C8F8BD
:100300000000D8F8000010F0805000900098012004
:100310000700DFF8CC93D9F80000C00513D4D9F852
:10032000000050F48070C9F8000000F0E9F9050001
:10033000D9F80000C00506D400F0E2F9401B65289A
:10034000F6D30320D0E0E068012806D1DFF894035B
:10035000016851F00101016025E0E06800280AD140
:10036000DFF880030168490849000160016831F045
:100370000401016017E0E06805280AD1DFF8640392
:10038000016851F004010160016851F00101016050
:1003900009E0DFF85003016849084900016001687D
:1003A00031F004010160E068002810D000F0A8F9E5
:1003B0000500DFF830030068800719D400F0A0F9C9
:1003C000401B41F289318842F3D303208CE000F0D6
:1003D00097F90500DFF80C030068800708D500F0E6
:1003E0008FF9401B41F289318842F3D303207BE02F
:1003F0003800C0B2012805D1D8F8000030F0805094
:10040000C8F80000E06900286DD0DFF8B482D8F8A1
:10041000000010F00C00082851D0E06902283BD100
:10042000DFF8C4A20020CAF8000000F069F9070054
:10043000DFF88892D9F80000800106D500F060F955
:10044000C01B0328F4D303204EE0206AB0F5803FA0
:1004500007D1D8F8001031F40031A0680143C8F882
:100460000010D8F8001031F47411206A0143606A5A
:100470000143C8F800100120CAF8000000F040F95C
:100480000500D9F8000080012DD400F039F9401B97
:100490000328F6D3032027E00020DFF84C12086081
:1004A00000F02EF90500DFF81402006880011AD56B
:1004B00000F026F9401B0328F5D3032014E0E0697F
:1004C000012801D101200FE0D8F80000060016F441
:1004D0008030216A884204D116F47010616A884223
:1004E00001D0012000E00020BDE8F6872DE9F041B1
:1004F00004000D00002C01D101209BE0DFF8EC711D
:10050000386810F00700A8420BD23868C008C00055
:1005100028433860386810F00700A84201D0012055
:1005200088E02078800716D52078400704D56448F5
:10053000016851F4E06101602078000704D560484B
:10054000016851F4605101605D490A6832F0F002BF
:10055000A06802430A602078C00735D5606801288A
:1005600005D156480068800310D4012062E060681D
:10057000022805D151480068800107D4012059E0C4
:100580004E480068800701D4012053E0DFF8308135
:10059000D8F800108908890060680143C8F8001085
:1005A00000F0AEF80600D8F8000010F00C0061680A
:1005B000B0EB810F08D000F0A3F8801B41F2893125
:1005C0008842F0D3032035E0386810F007008542F8
:1005D0000BD23868C008C00028433860386810F073
:1005E0000700A84201D0012024E02078400706D56A
:1005F00033490A6832F4E062E06802430A60207816
:10060000000707D52E48016831F46051226951EA8C
:10061000C201016000F010F83549294A1268C2F39E
:100620000312895CC840284908602848006800F027
:100630006DF80020BDE8F081F0B400200021002218
:10064000002300251E4E346814F00C07042F02D03E
:10065000082F02D01BE01B481AE02648C4F383474A
:10066000C05D0300E0030CD523483668C6F340465E
:10067000805D0100134800FB03F0B0FBF1F00200C5
:1006800003E01E4800FB03F00200100000E00D48EC
:10069000F0BC704781B00C490968C9084FF47A7200
:1006A000B1FBF2F101FB00F1009100BF00994A1E7D
:1006B00000920029F9D101B07047000000100240FB
:1006C0000410024000127A002400002020000020C4
:1006D0002410024000004242800442421C100240AA
:1006E00000700040201002406000424200200240A2
:1006F00028100008181000085E0A000800093D00D4
:1007000001480068704700BF3000002010B50400A9
:100710004FF47A700D490978B0FBF1F00C49096883
:10072000B1FBF0F000F095F8002801D001200CE0BA
:10073000102C09D2002221005FF0FF3000F074F885
:1007400004480460002000E0012010BD34000020B7
:10075000240000202000002010B410F00703404CBB
:1007600022684FF6FF010A403E4951EA03210A433D
:10077000226010BC70473A480068C0F302207047FE
:1007800010B4020052B2002A05D40A01364B04000C
:1007900064B21A5508E00A01344B040064B214F044
:1007A0000F04234403F8042C10BC704770B40300FA
:1007B00013F00704D4F10700052801D3042001E059
:1007C000D4F10700251D072D01D2002500E0E51E0C
:1007D000012616FA00F0401E0140A94016FA05F560
:1007E0006D1E2A401143080070BC704710B504000C
:1007F000601EB0F1807F01D301200EE0601E1C4915
:1008000008600F215FF0FF30FFF7BAFF00201949A1
:100810000860072018490860002010BD10B50400CA
:100820002000FFF799FF10BD2DE9F04104000D00F5
:1008300016000027FFF79FFF804632002900404640
:10084000FFF7B4FF0100200040B2FFF799FFBDE8B9
:10085000F08110B504002000FFF7C8FF10BD0000B4
:100860000CED00E00000FA0500E400E018ED00E007
:1008700014E000E018E000E010E000E02DE9F14FA6
:1008800082B0894692469B4601208DF800000024E4
:100890000025DFF89061307E012801D1022042E07E
:1008A000012030764CF25037380000F060F8804676
:1008B0004046C0B2002832D10298012802D101205E
:1008C000050007E00298022802D10220050001E09D
:1008D000042005000020040020002900C0B2C9B295
:1008E00088421CD250465946E4B2220100F0A8F8D2
:1008F000010089B22000C0B219EB400000F02DF8D1
:10090000380000F034F8804647480168490849003B
:1009100001604046C0B2002801D1641CDCE7002021
:1009200030764046C0B2BDE8FE8F00203E490A68DE
:10093000120609D53E4A3F4B13603F4B13600968CE
:10094000090601D501210800C0B270473648016888
:1009500051F080010160002070470022314BDA61C4
:10096000314A136853F0010313600180704738B5B2
:100970000400FFF7C5FE05002C480168C9070BD528
:1009800014F1010FF8D0002C04D0FFF7B9FE401B82
:100990008442F1D2032013E00168890601D52021A9
:1009A00001600168C90606D424490968C90702D450
:1009B0000068400703D500F004F8012000E00020A3
:1009C00032BD10B4002119480268D20606D5154A76
:1009D000D36953F00203D36151F01001026852074A
:1009E00006D5104AD36953F00103D36151F00401D5
:1009F000124B1A68D20708D50A4AD46954F0040485
:100A0000D4611A68520852001A6040F201129142F1
:100A100004D1186840084000186000E0016010BC74
:100A20007047000000000020102002400C2002400F
:100A30000420024023016745AB89EFCD1C20024012
:100A4000D2B2203A22BF21FA02F0002170472032B0
:100A5000D141D04048409140D140484070470102C8
:100A600010B500F0BDF800F026F800F053F80120B2
:100A700000F03EF90400002C04D100F058F80028E2
:100A800005D5FEE714F1020F01D100F08AF84A49BA
:100A90000A684A480240B2F1005F0BD14848494A0F
:100AA00012680260484A00681060086880F308888D
:100AB00010688047FEE700B58FB02822002105A806
:100AC00000F054F914220021684600F04FF902208A
:100AD00005900120099010200A9000200C9005A894
:100AE000FFF704FB002801D000F078F80F200090F9
:100AF000002001900020029000200390002004902C
:100B000000216846FFF7F2FC002801D000F066F8EB
:100B10000FB000BD81B02D48016851F004010160A3
:100B2000006810F004000090009801B070477CB598
:100B300000F068F8204D264C2100280000F06BF8EA
:100B4000002802D05FF0FF302AE0224800680090C1
:100B5000009800BA0090009EB608009810F0030FAD
:100B600000D0761C32001A49280000F07BF80028DB
:100B700002D05FF0FF3013E0002000F0B9F8002849
:100B800002D55FF0FF300BE00020009001226946A3
:100B9000104800F067F81049200000F03CF80020F1
:100BA00076BD80B500F02EF8FF2000900122694646
:100BB000084800F057F801BD002000080000FE2F93
:100BC0002C000020042000082800002018100240FB
:100BD00000000108FCDF010800E0010872B6FEE732
:100BE00080B50748016851F0100101600320FFF74C
:100BF00015FE0F20FFF78AFD00F0C2F8002002BDAD
:100C00000020024080B5FFF790FE34205049086074
:100C1000FFF79CFE01BD2DE9F04385B004000D00F7
:100C20000026002000900027FFF77FFEB5EB0408A8
:100C30005FEA982800200190039401200290CDF8EB
:100C40001080694601A800F0BFF88146FFF77EFEDC
:100C50004846C0B2002801D0012000E0002005B0C5
:100C6000BDE8F0832DE9F04107000C0015005FF0AE
:100C70000008FFF75AFE0026AE4217D235488742D9
:100C800014D254F82620002339000220FFF7F6FD85
:100C9000002809D1386854F82610884201D0022073
:100CA00007E03F1D761CE7E7032002E0FFF74EFE5A
:100CB0000020BDE8F08170B403005FF0FF30002435
:100CC0008C4212DA1A5D504007221500002D0AD41A
:100CD00010F001025242160002001F48304090EA14
:100CE00052006D1EF2E7641CEAE7C04370BC704717
:100CF00070B5040000251948006806BA4DF6ED717C
:100D00008E4201D2042E02D25FF0FF301DE0002C93
:100D100005D0311F1248FFF7CEFF010004E0311F5C
:100D20001048FFF7C8FF01000F4A92190023042B57
:100D300005DA2D0210780543521C5B1CF7E7A94227
:100D400001D1002001E07FF0010070BD0000000033
:100D50000C200240FDDF01082083B8EDFCDF010814
:100D60000000010800200008FCFF000810B5044640
:100D700010460A460146204600F0A6F8204610BD5F
:100D800081B00E48016851F001010160006810F067
:100D90000100009000980A48016851F080510160FC
:100DA000006810F08050009000980649086830F004
:100DB000E06050F00070086001B070471810024009
:100DC0001C100240040001402DE9F84304000D000E
:100DD00001260027DFF8E48098F81800012801D1E7
:100DE000022049E0012088F818002068022814D168
:100DF0004CF250394846FFF7BAFD002837D10120A0
:100E000000F03CF84846FFF7B2FD0600DFF8B000FE
:100E1000016831F00401016029E04CF25039484684
:100E2000FFF7A5FD002822D15FF0FF302860A06801
:100E30000700E1684FF48062A06802FB01018F4265
:100E400015D2380000F029F84846FFF790FD06005B
:100E5000DFF86C00016831F0020101603000C0B2BF
:100E6000002801D02F6002E017F58067E1E700203D
:100E700088F818003000C0B2BDE8F2830021DFF826
:100E80003C20D161DFF838100A6852F004020A6091
:100E90000A6852F040020A6070470021074AD16197
:100EA00007490A6852F002020A60064A10600A689E
:100EB00052F040020A60704700000000000000206D
:100EC000102002401420024062F30F2262F31F42FE
:100ED000401810F0030308D0C91A1FD3DB0748BF1E
:100EE00000F8012D28BF20F8022D130030B414465D
:100EF0001546103928BF20E93C00FAD8490728BF19
:100F000020E90C0048BF40F8042D890028BF20F8D4
:100F1000022D48BF00F8012D30BC7047C91818BF1A
:100F200000F8012DCB0728BF00F8012D704730B520
:100F3000016884684218416802EB5103C90703D570
:100F40004C4401E0491C05D19A420AD012F9011B18
:100F500012F8015B002904F8015BF3D4491EF7D5B0
:100F6000F2E70C3030BD000010B507497944183164
:100F7000064C7C44163404E00A68081D1144884776
:100F80000146A142F8D110BD080000001400000085
:100F90009FFFFFFF6E0100001A000000000000200C
:100FA00000F00DF8002801D0FFF7DEFFAFF300805E
:100FB0000020AFF30080FFF753FD00F002F801209E
:100FC000704700F001B800000746384600F002F80C
:100FD000FBE7000080B5AFF30080024A1100182043
:100FE000ABBEFBE72600020003490A68034800780D
:100FF00082180A60704700BF3000002034000020D3
:10100000FEE7FEE7FEE7FEE7FEE770477047704742
:1010100080B5FFF7E9FF01BD0203040506070809D3
:101020000A0B0C0D0E0F1010000000000000000055
:1010300001020304060708090148804701480047E8
:101040000111000849100008AFF30080AFF30080E1
:10105000FFF7A6FFFFF7FEBFFFF7FEBFFFF7FEBFDC
:10106000FFF7FEBFFFF7FEBFFFF7FEBFFFF7FEBFB4
:10107000FFF7FEBFFFF7FEBFFFF7FEBFFFF7FEBFA4
:10108000FFF7FEBFFFF7FEBFFFF7FEBFFFF7FEBF94
:10109000FFF7FEBFFFF7FEBFFFF7FEBFFFF7FEBF84
:1010A000FFF7FEBFFFF7FEBFFFF7FEBFFFF7FEBF74
:1010B000FFF7FEBFFFF7FEBFFFF7FEBFFFF7FEBF64
:1010C000FFF7FEBFFFF7FEBFFFF7FEBFFFF7FEBF54
:1010D000FFF7FEBFFFF7FEBFFFF7FEBFFFF7FEBF44
:1010E000FFF7FEBFFFF7FEBFFFF7FEBFFFF7FEBF34
:1010F000FFF7FEBFFFF7FEBFFFF7FEBFFFF7FEBF24
:0F1100007047E0000010FC0001127AF3000001BC
:040000050800104996
:00000001FF
