:020000040800F2
:100000003809002071450008BD430008BF430008BF
:10001000C1430008C3430008C543000800000000B6
:10002000000000000000000000000000C7430008BE
:10003000C943000800000000CB430008CD4300087E
:10004000A5450008A9450008AD450008B1450008D0
:10005000B5450008B9450008BD450008C145000880
:10006000C5450008C9450008CD450008D145000830
:10007000D5450008D9450008D5430008DF430008EE
:10008000DD450008E1450008E5450008E9450008B0
:10009000ED450008F1450008F5450008F945000860
:1000A000FD4500080146000805460008094600080D
:1000B0000D460008114600081546000819460008BC
:1000C0001D4600082146000825460008294600086C
:1000D0002D460008E943000831460008354600086F
:1000E000394600083D4600084146000810B50400A6
:1000F000002C01D101203EE0A0690028FFD194F836
:10010000410000280ED1002084F84000200000F0BB
:100110003CFA206F002802D1DFF898012067200008
:10012000216F8847242084F841002068C06830F49B
:1001300000502168C860200000F052FC206800696F
:1001400030F49040216808612068406930F02A004E
:10015000216848612068C06850F400502168C86078
:1001600000206064202084F84100202084F84200B0
:1001700000206063002010BD10B4040000201300B4
:10018000002B05D1606C50F02000606401204DE030
:1001900094F84130202B2FD1C9B2002912D0012967
:1001A00012D0022912D0032912D0042912D0052915
:1001B00012D0062912D0072912D00B2912D00C29EF
:1001C00012D013E0A26430E0E2642EE022652CE05D
:1001D00062652AE0A26528E0E26526E0226624E066
:1001E000626622E0226720E062671EE0606C50F0E9
:1001F00020006064012018E094F84130002B0FD1FA
:10020000C9B20B2902D00C2902D003E022670CE00E
:1002100062670AE0606C50F020006064012004E036
:10022000606C50F0200060640120C0B210BC7047C8
:1002300013B50400130094F84100202838D1019828
:10024000002803D0180080B2002801D1012030E03E
:1002500001982062A384E38400206064212084F854
:1002600041001548A16B88621448A16BC86214480C
:10027000A16B08630020A16B486301A89BB22168B1
:100280000A1D0168A06B00F061FC7FF0400021684E
:1002900008602068143050E8001F51F08001206889
:1002A00010F1140242E800100028F2D1002000E012
:1002B000022016BDD11C0008C30500081106000865
:1002C000D906000880B590F84230202B0DD10029C6
:1002D00003D013009BB2002B01D1012006E00023C4
:1002E000036392B200F023FA00E0022002BD38B5A9
:1002F0000400206801682068C26820684369002003
:10030000002011F00F00002807D18D0605D59506B5
:1003100003D5200000F0EDFA36E1002879D0D807A7
:1003200002D412F4907F74D011F00100C0B2002802
:1003300005D0D00503D5606C50F00100606448071B
:1003400008D513F00100C0B2002803D0606C50F053
:1003500002006064880708D513F00100C0B20028CD
:1003600003D0606C50F00400606408070AD5900662
:1003700004D413F00103DBB2002B03D0606C50F007
:1003800008006064606C002842D0880604D590069E
:1003900002D5200000F0ADFA20684069800910F015
:1003A0000100616C090701D400282CD0200000F066
:1003B00026FA20684069400621D52068143050E8AC
:1003C000001F31F04001206810F1140242E80010D3
:1003D0000028F2D1E06B00280DD00FF28540E16BD0
:1003E0004863E06B00F01AFC002811D0E06BE16B71
:1003F000496B88470CE02000A16D884708E0200089
:10040000A16D884704E02000A16D8847002060644A
:10041000BAE0206B012840F0A780C80640F1A48014
:10042000D00640F1A1800020009020680068009074
:10043000206840680090009820684069400656D5C2
:10044000E06B00684168080080B200284ED00800C8
:10045000A28D80B2904249D2E185E06B806920286C
:100460003BD020680C3050E8001F31F480712068C8
:1004700010F10C0242E800100028F2D1206814307C
:1004800050E8001F49084900206810F1140242E8B2
:1004900000100028F2D12068143050E8001F31F01D
:1004A0004001206810F1140242E800100028F2D147
:1004B000202084F842000020206320680C3050E89F
:1004C000001F31F01001206810F10C0242E800100A
:1004D0000028F2D1E06B00F07BFB02206063A18D6D
:1004E000E08D091A89B22000E26E90474CE0A08DA1
:1004F000E18D411AE08D002835D0080080B2002837
:1005000031D020680C3050E8002F32F4907220680F
:1005100010F10C0343E800200028F2D120681430C9
:1005200050E8002F52085200206810F1140343E8ED
:1005300000200028F2D1202084F84200002020630F
:1005400020680C3050E8002F32F01002206810F1C3
:100550000C0343E800200028F2D10220606389B236
:100560002000E26E90470FE0080605D5100603D57F
:10057000200000F07FF907E0480605D5500603D5B6
:10058000200000F0A8F9FFE731BDDFF824158164F1
:10059000DFF82015C164DFF820150165DFF81C15B0
:1005A0004165DFF81C158165DFF81815C165DFF8B6
:1005B00018150166DFF814154166DFF81415C166D9
:1005C000704780B50100486A0968096889061CD42B
:1005D0000021C1840168143151E8002F32F08002FB
:1005E000016811F1140343E800210029F2D10168E8
:1005F0000C3151E8002F52F04002016811F10C0358
:1006000043E800210029F2D101E0C16C884701BD17
:1006100080B5406A816C884701BD80B50100486A99
:100620000968096889063BD40021C18501680C313D
:1006300051E8002F32F48072016811F10C0343E895
:1006400000210029F2D10168143151E8002F52082D
:100650005200016811F1140343E800210029F2D18E
:100660000168143151E8002F32F04002016811F1A5
:10067000140343E800210029F2D1202180F8421020
:10068000016B01290CD101680C3151E8002F32F0C7
:100690001002016811F10C0343E800210029F2D196
:1006A00000214163016B012903D1818DC26E904706
:1006B00001E0416D884701BD80B5406A0121416379
:1006C000016B012905D1818D490889B2C26E90471D
:1006D00001E0016D884701BD10B50021446A206822
:1006E0004069C00910F0010094F84110212906D199
:1006F000002804D00020E084200000F06FF820687B
:100700004069800910F0010094F84210222906D1B6
:10071000002804D00020E085200000F070F8606C14
:1007200050F0100060642000A16D884710BD13B523
:10073000040013000198A062A385002060642220B9
:1007400084F84200DFF88C03E16B8862DFF88803ED
:10075000E16BC862DFF88403E16B08630020E16BA2
:10076000486301A89BB202682068011DE06B00F09D
:10077000EDF9002000902068006800902068406833
:1007800000900098206900280CD020680C3050E8B8
:10079000001F51F48071206810F10C0242E8001033
:1007A0000028F2D12068143050E8001F51F00101F8
:1007B000206810F1140242E800100028F2D12068ED
:1007C000143050E8001F51F04001206810F114026D
:1007D00042E800100028F2D1002016BD01680C315B
:1007E00051E8002F32F0C002016811F10C0343E818
:1007F00000210029F2D1202180F8411070470168C2
:100800000C3151E8002F32F49072016811F10C03A1
:1008100043E800210029F2D10168143151E8002F8A
:1008200052085200016811F1140343E80021002925
:10083000F2D1016B01290CD101680C3151E8002F74
:1008400032F01002016811F10C0343E80021002985
:10085000F2D1202180F8421000210163704700008E
:1008600080B5406A0021C1850021C184816D88471F
:1008700001BD000090F8411021292AD18168B1F50D
:10088000805F0CD10169002909D1016A0988C90575
:10089000C90D02685160016A891C016205E0016AA4
:1008A0004A1C0262097802685160C18C491EC184E9
:1008B00089B200290BD10168C96831F08001026852
:1008C000D1600168C96851F040010068C160002032
:1008D00000E00220704780B50168C96831F040012E
:1008E0000268D160202180F84110C16C8847002047
:1008F00002BD80B590F8421022296FD18168B1F510
:10090000805F0DD1016900290AD10021816A026846
:100910005268D205D20D0A80816A891C816217E073
:10092000826A00218168B1F5805F05D08168002965
:1009300006D10169002903D101684968117004E0FA
:100940000168496811F07F011170816A491C816258
:10095000C18D491EC18589B200293DD10168C96890
:1009600031F020010268D1600168C96831F48071FA
:100970000268D1600168496949084900026851610B
:10098000202180F8421000214163016B01291FD111
:100990000021016301680C3151E8002F32F0100290
:1009A000016811F10C0343E800210029F2D101682C
:1009B0000968C90608D500210091016809680091FD
:1009C0000168496800910099818DC26E904701E0ED
:1009D000416D8847002002E0002000E0022002BDB7
:1009E000F8B504002068016931F44051E068014322
:1009F00020680161A16820690143606901432068A2
:100A0000C2683748024011432068C16020684169CC
:100A100031F44071A0690143206841612068314987
:100A2000884202D100F0E9FC01E000F0DBFC642127
:100A3000192202FB00F36568AD00B3FBF5F36425F2
:100A4000B3FBF5F302FB00F56668B600B5FBF6F5FF
:100A500002FB00F66768BF00B6FBF7F66427B6FB3B
:100A6000F7F601FB16552D0132356426B5FBF6F578
:100A700015F0F00515EB031502FB00F36668B600F0
:100A8000B3FBF6F3504362689200B0FBF2F06422CD
:100A9000B0FBF2F001FB1031080132306421B0FBF1
:100AA000F1F010F00F00451920688560F1BD0000DD
:100AB0001345000807450008454600089945000809
:100AC00047460008494600084B4600084D460008C6
:100AD0004F4600081B060008B9060008D9060008A2
:100AE000F3E9FFFF003801400021002801D1012077
:100AF0002BE00268DFF834138A181421B2FBF1F1FD
:100B000089000164DFF82813C163022180F82110F5
:100B100001680A686FF30D12436881680B43C1686E
:100B20000B4301690B4341690B4381690B43C16965
:100B30000B431A4301680A6000218163012180F898
:100B40002110002180F820100020704770B50400AB
:100B5000002594F82000012801D1022037E001206F
:100B600084F8200094F8210001282AD1022084F87A
:100B700021000020A063206800684008400026682B
:100B80003060200000F064F9E06A002806D0206898
:100B9000006850F00E00216808600BE020680068D3
:100BA00030F00400216808602068006850F00A00F6
:100BB000216808602068006850F001002168086022
:100BC00003E0002084F8200002252800C0B270BD98
:100BD000002190F82120022A06D0042181630021FF
:100BE00080F82010012018E00268126832F00E022E
:100BF00003681A60026812685208520003681A609B
:100C00000123026C9340C26B5360012280F82120C3
:100C1000002280F820200800C0B2704710B50024E0
:100C200090F82110022903D004218163012449E0B6
:100C30000168096831F00E010268116001680968F5
:100C400049084900026811600168DFF8E821914213
:100C500001D1012128E00168DFF8DC21914201D1B6
:100C6000102121E00168DFF8D421914202D14FF434
:100C7000807119E00168DFF8C821914202D14FF478
:100C8000805111E00168DFF8BC21914202D15FF48C
:100C9000803109E00168DFF8B021914202D15FF4B0
:100CA000801101E05FF08071DFF8A0211160012167
:100CB00080F82110002180F82010416B002901D01C
:100CC000416B88472000C0B210BD10B5C16B0A68E7
:100CD00001680B680424016C8C4022423DD0590706
:100CE0003BD501680968890605D40168096831F0B7
:100CF00004010268116001684E4A914201D1042149
:100D000023E001684C4A914201D140211DE0016875
:100D10004A4A914202D14FF4806116E00168484A84
:100D2000914202D14FF480410FE00168454A91425F
:100D300002D15FF4802108E00168434A914202D168
:100D40005FF4800101E05FF08061404A1160C16A98
:100D500000296AD0C16A884767E00224016C8C4090
:100D6000224243D0990741D501680968890608D411
:100D70000168096831F00A0102681160012180F8F8
:100D8000211001682B4A914201D1022123E0016820
:100D9000294A914201D120211DE00168274A914250
:100DA00002D14FF4007116E00168254A914202D148
:100DB0004FF400510FE00168224A914202D15FF4E2
:100DC000003108E00168204A914202D15FF400112D
:100DD00001E05FF000711D4A1160002180F82010D1
:100DE000816A002921D0816A88471EE00824016CAD
:100DF0008C40224219D0190717D50168096831F0D3
:100E00000E01026811600122016C8A40C16B4A60C8
:100E100001218163012180F82110002180F8201038
:100E2000016B002901D0016B884710BDF8FFFDBFA1
:100E300000000240080002401C0002403000024056
:100E400044000240580002406C000240040002408E
:100E500030B40125046CA540C46B65600468636010
:100E60004368102B04D103689A600068C16003E0F6
:100E7000036899600068C26030BC70472DE9FC418E
:100E80000400002C01D10120DFE12078C0076BD5E0
:100E9000DFF8A805016811F00C01042907D00168EA
:100EA00011F00C0108290CD10068C00309D5DFF846
:100EB00088050068800357D56068002854D1012058
:100EC000C3E16068B0F5803F06D1DFF86C050168CA
:100ED00051F48031016026E0606800280AD1DFF813
:100EE0005805016831F480310160016831F48021D6
:100EF000016018E06068B0F5A02F0AD1DFF838056E
:100F0000016851F480210160016851F48031016071
:100F100009E0DFF82405016831F4803101600168DF
:100F200031F480210160606800280ED000F0A8FA3A
:100F30000500DFF804050068800315D400F0A0FA6E
:100F4000401B6528F5D303207FE100F099FA0500E6
:100F5000DFF8E4040068800306D500F091FA401B36
:100F60006528F5D3032070E1207880071ED5DFF8CF
:100F7000CC04016811F00C0F07D0016811F00C01CE
:100F800008292CD10068C00329D4DFF8AC0401681B
:100F9000890704D52169012901D0012055E10168A3
:100FA00031F0F801626951EAC2010160207800075E
:100FB00049D5A069002871D00120DFF89414086099
:100FC00000F05EFA0500DFF884040068800737D47B
:100FD00000F056FA401B0328F5D3032035E12069C1
:100FE00000281AD00120DFF86C14086000F048FADD
:100FF0000500DFF844040168890706D400F040FAD0
:10100000401B0328F5D303201FE1016831F0F801EC
:10101000626951EAC2010160C8E70020DFF83414B8
:10102000086000F02DFA0500DFF80C040068800766
:10103000BCD500F025FA401B0328F5D3032004E1BA
:10104000012000F0E5F92078400740F19680002665
:10105000DFF804542868C00009D4286850F0805094
:101060002860286810F08050009000980126DFF872
:10107000EC733868C00524D4386850F48070386048
:1010800000F0FEF980463868C0051AD400F0F8F97F
:10109000B0EB08006528F6D30320D6E00020DFF887
:1010A000B013086000F0ECF90500DFF8A003006859
:1010B0008007C8D500F0E4F9401B0328F5D30320CE
:1010C000C3E0E068012806D1DFF89403016851F01D
:1010D0000101016025E0E06800280AD1DFF8800303
:1010E0000168490849000160016831F004010160AC
:1010F00017E0E06805280AD1DFF86403016851F0C1
:1011000004010160016851F00101016009E0DFF8AC
:1011100050030168490849000160016831F0040189
:101120000160E068002810D000F0AAF90700DFF89D
:1011300030030068800719D400F0A2F9C01B41F207
:1011400089318842F3D303207FE000F099F907004A
:10115000DFF80C030068800708D500F091F9C01B88
:1011600041F289318842F3D303206EE0F6B2012EBA
:1011700003D1286830F080502860E069002863D0EF
:10118000DFF8B862306810F00C0008284AD0E06937
:10119000022834D1DFF8CC720020386000F070F9FA
:1011A0008046DFF894522868800107D500F068F97E
:1011B000B0EB08000328F4D3032046E0206AB0F522
:1011C000803F05D1316831F40031A06801433160BE
:1011D000316831F47411206A0143606A014331605F
:1011E0000120386000F04CF90400286880012BD4FD
:1011F00000F046F9001B0328F7D3032025E0002068
:10120000DFF86012086000F03BF90400DFF8280204
:101210000068800118D500F033F9001B0328F5D3CE
:10122000032012E0E069012801D101200DE03068BF
:1012300010F48031226A914204D110F47010616A76
:10124000884201D0012000E00020BDE8F6812DE9B0
:10125000F04104000E00002C01D1012098E0DFF8DD
:101260000852286810F00700B0420BD22868C00866
:10127000C00030432860286810F00700B04201D059
:10128000012085E02078800716D52078400704D516
:101290006A48016851F4E06101602078000704D5D4
:1012A0006648016851F46051016064490A6832F08F
:1012B000F002A06802430A602078C00732D5606857
:1012C000012805D15C480068800310D401205FE04C
:1012D0006068022805D158480068800107D40120C1
:1012E00056E055480068800701D4012050E0534F74
:1012F00039688908890060680143396000F0C0F8E6
:101300008046386810F00C006168B0EB810F09D09E
:1013100000F0B6F8B0EB080041F289318842F0D312
:10132000032035E0286810F0070086420BD22868B9
:10133000C008C00030432860286810F00700B042A1
:1013400001D0012024E02078400706D53B490A68F7
:1013500032F4E062E06802430A602078000707D5B3
:101360003648016831F46051226951EAC2010160D6
:1013700000F010F83D49314A1268C2F30312895C4B
:10138000C840304908603048006800F07FF800200D
:10139000BDE8F08100200020002000200020274A26
:1013A000116811F00C00042802D0082802D014E0C3
:1013B000234813E02E48C1F38343C05CC90309D519
:1013C0002C491268C2F340428A5C1D494843B0FB75
:1013D000F2F001E02849484300E0194870471948F5
:1013E0000068704780B5FFF7FAFF2449134A126876
:1013F000C2F30222895CC84002BD80B5FFF7EFFF4F
:101400001E490E4A1268C2F3C222895CC84002BD5E
:1014100081B00C490968C9084FF47A72B1FBF2F146
:101420004843009000BF0098411E00910028F9D168
:1014300001B070470000000000100240041002409C
:1014400000127A0004000020000000202410024056
:1014500080044242000042421C10024000700040E2
:101460002010024060004242002002406045000817
:1014700040450008323E000800093D009C45000838
:1014800001480068704700BF0405002010B5040043
:101490004FF47A700D490978B0FBF1F00C490968F6
:1014A000B1FBF0F000F099F8002801D001200CE029
:1014B000102C09D2002221005FF0FF3000F077F8F5
:1014C00004480460002000E0012010BD0800002056
:1014D000040000200000002010F00700414B1A68B3
:1014E0004FF6FF010A40404951EA00210A431A60C1
:1014F00070473C480068C0F302207047010049B2C1
:10150000002908D4012210F01F018A40374940B257
:10151000400941F820207047020052B2002A04D44A
:101520000901334A40B2115407E00901314A40B27F
:1015300010F00F00104400F8041C704710B410F0B5
:101540000700D0F10703052B01D3042301E0D0F1FC
:101550000703041D072C01D2002000E0C01E012457
:1015600014FA03F35B1E1940814014FA00F0401E88
:101570001040084310BC704780B5411EB1F1807F18
:1015800001D301200EE0401E1B4908600F215FF0CF
:10159000FF30FFF7C1FF00201849086007201849F5
:1015A0000860002002BD80B5FFF796FF01BD70B551
:1015B00004000D0016000020FFF79BFF32002900F9
:1015C000FFF7BCFF0100200040B2FFF7A5FF70BD90
:1015D00080B540B2FFF792FF01BD80B5FFF7CCFFA9
:1015E00002BD00000CED00E00000FA0500E100E0A3
:1015F00000E400E018ED00E014E000E018E000E096
:1016000010E000E0F8B504000020002500260027C7
:10161000002C01D1012090E0A068002801D0207D9D
:101620000028A06A002807D10020E062002084F88A
:101630002400200000F012FB200000F0C7FAA16A8D
:10164000C90674D40100C9B2002970D1A16A31F46D
:10165000885151F00201A1626268E1690A43217B6D
:1016600052EA41021643A168B1F5807F02D0A16819
:10167000012902D14FF4807100E000210D43217D4A
:10168000012911D1217B002906D1A169491E4903F5
:1016900051F400610D4307E0A16A51F02001A162FD
:1016A000E16A51F00101E1622168496831F4694160
:1016B0000D4321684D6021688A68DFF8DC140A4018
:1016C000324321688A60A168B1F5807F02D0A168A9
:1016D000012902D14FF4807100E00021B1F5807F33
:1016E00002D127697F1E3F052168C96A31F4700164
:1016F0000F432168CF6221688A68DFF8A0140A408E
:10170000B24208D10021E162A16A31F0020151F038
:101710000101A16210E0A06A30F0020050F0100058
:10172000A062E06A50F00100E062012004E0A06ADB
:1017300050F01000A0620120C0B2F2BD10B504004C
:10174000002094F82400012801D1022086E0012025
:1017500084F82400200000F0E3F90100C9B2002958
:1017600078D1A26ADFF838140A4052F48072A2627B
:10177000DFF830242168914209D1DFF82C14096880
:1017800011F4702F01D1012102E0002100E00121BC
:1017900000290ED0A16A31F48011A1622168496844
:1017A000490521D5A16A31F4005151F48051A1625B
:1017B0001AE0A16A51F48011A1622168DFF8EC33CC
:1017C000994202D02168914205D1DFF8DC13096803
:1017D00011F4806100E00021002905D0A16A31F4F4
:1017E000005151F48051A162A16AC90404D5E16A93
:1017F00031F00601E16201E00021E162002184F89C
:1018000024107FF00201236819602168896811F4AF
:101810006021B1F5602F16D12168914209D1DFF81E
:101820008813096811F4702F01D1012102E0002111
:1018300000E00121002906D02168896851F4A00147
:101840002268916009E02168896851F4801122685A
:10185000916002E0002184F82410C0B210BDF8B5F8
:1018600005000C000020002000900020FFF708FE7B
:10187000060028688068C00508D5A86A50F02000D6
:10188000A862002085F8240001209CE028684068B8
:10189000C0051FD42868C06A10F4700F1AD12868D8
:1018A0000068800771D414F1010FF8D0002C04D027
:1018B000FFF7E6FD801B8442F1D2286800688007AC
:1018C000EDD4A86A50F00400A862002085F8240036
:1018D000032078E0022000F002FB29680969DFF8A4
:1018E000D022114215D12968C968DFF8C8221142F7
:1018F0000FD129680969DFF8C022114207D1296890
:10190000C968DFF8B822114201D114211AE0292157
:1019100018E029680969DFF8A022114205D1296879
:10192000C968DFF89822114209D0DFF894122A68BA
:1019300012690A4205D12A68D2680A4201D15421AB
:1019400000E0FC21DFF87C221268B2FBF0F74F4385
:1019500002E00098401C00900098B84215D214F1A3
:10196000010FF6D0002C04D0FFF78AFD801B8442C3
:10197000EFD20098B842ECD2A86A50F00400A862F6
:10198000002085F8240003201DE07FF01200296864
:101990000860A86A50F40070A8622868806810F493
:1019A0006020B0F5602F0DD1287B00280AD1A86AED
:1019B00030F48070A862A86AC00403D4A86A50F00A
:1019C0000100A8620020F2BD0068C06C704778B4C6
:1019D0000200080000210023009392F82430012B1C
:1019E00001D102209AE0012382F824304368072BBA
:1019F00012D213685C6B1F2543685E1E05235E438D
:101A0000B540AC43056843685E1E05235E43B540A0
:101A10002C4313685C6329E043680D2B12D21368D2
:101A20001C6B1F254368DE1F05235E43B540AC4396
:101A300005684368DE1F05235E43B5402C431368E9
:101A40001C6313E01368DC6A1F254368B3F10D06BD
:101A500005235E43B540AC4305684368B3F10D060A
:101A600005235E43B5402C431368DC6203680A2BF0
:101A700014D31368DC6807250368B3F10A0603234F
:101A80005E43B540AC4385680368B3F10A0603239F
:101A90005E43B5402C431368DC600FE013681C699B
:101AA0000725066803235E43B540AC438568066896
:101AB00003235E43B5402C4313681C610368102B5D
:101AC00002D00368112B24D11368384CA3421BD1D8
:101AD00013689B681B021CD413689B6853F40003B3
:101AE0001468A3600068102813D136480068364B8C
:101AF000B0FBF3F30A20434300930098002808D07A
:101B00000098401E0090F8E7906A50F02000906224
:101B10000121002082F824000800C0B272BC704786
:101B200038B5040000200020009020688068C007BD
:101B30002FD42068806850F0010021688860214817
:101B400000682149B0FBF1F0009002E00098401ECF
:101B5000009000980028F9D1FFF792FC050020685A
:101B60008068C00715D4FFF78BFC401B0328F6D311
:101B700020688068C007F2D4A06A50F01000A0620C
:101B8000E06A50F00100E062002084F824000120A7
:101B900000E0002032BD0000FDF7E1FFFE0E1FFF58
:101BA000FEFDFFFF00280140042401400024014005
:101BB00024499224244992009224491292244900F3
:101BC000499224000400002040420F0038B5040070
:101BD000002020688068C0071FD520688068400802
:101BE000400021688860FFF74BFC05002068806892
:101BF000C00712D5FFF744FC401B0328F6D320682A
:101C00008068C007F2D5A06A50F01000A062E06AB8
:101C100050F00100E062012000E0002032BD000031
:101C200081B06848016851F001010160006810F05E
:101C30000100009000986448016851F080510160F3
:101C4000006810F08050009000986049086830F0FB
:101C5000E06050F00070086001B0704718B585B0C2
:101C600004001022002101A800F0B0F920685849B2
:101C700088421AD15348016851F40071016001682B
:101C800011F4007100910099016851F004010160A4
:101C9000006810F00400009000980F2001900320CD
:101CA000029001A94B4800F09BF906B010BD81B02D
:101CB0000068B0F1804F09D14348016851F001013B
:101CC0000160006810F001000090009801B07047BA
:101CD00030B585B0040010220021684600F076F986
:101CE00020683D4988426AD13648016851F48041F4
:101CF0000160016811F4804104910499016851F078
:101D000008010160006810F0080004900498402069
:101D100000900220019003200390304D6946280076
:101D200000F05EF9802000900020019000200290D9
:101D30006946280000F054F92449086850F0E06032
:101D400050F004000860264D264828600020686096
:101D50000020A8608020E8600020286100206861E1
:101D60002020A8610020E8612800FEF7BDFE0028C1
:101D700001D000F00BFCE5636C621B4D1B48286032
:101D8000102068600020A8608020E86000202861A2
:101D9000002068610020A8610020E8612800FEF7AB
:101DA000A3FE002801D000F0F1FBA5636C620022C5
:101DB00000212520FFF7FBFB2520FFF709FC05B0DC
:101DC00030BD0000181002401C1002400400014009
:101DD000002401400008014000380140000C01408F
:101DE0001C03002058000240600300204400024011
:101DF0002DE9FC410400002000202078C00757D5C1
:101E00000026674D2868C00009D4286850F080502B
:101E10002860286810F08050009000980126614FDB
:101E20003868C00511D4386850F480703860FFF706
:101E300027FB80463868C00507D4FFF721FBB0EBCD
:101E400008006528F6D3032047E0574F386810F4A0
:101E5000407000281FD0616811F4407188421AD088
:101E6000386830F44070514901220A6000220A604B
:101E70003860C0070FD5FFF703FB8046386880073E
:101E800009D4FFF7FDFAB0EB080041F2893188422E
:101E9000F4D3032021E0396831F4407160680143D4
:101EA0003960F6B2012E03D1286830F080502860E6
:101EB0002078800706D53E490A6832F44042A0687F
:101EC00002430A602078C00606D539490A6832F410
:101ED0008002E06802430A600020BDE8F68138B560
:101EE00000210022002100210021012828D0022801
:101EF00049D0102852D12E4B18682E4C2468E4018A
:101F00001DD52D49C0F383440C5DC1030BD52B496E
:101F10001D68C5F34045495DC00307D52848B0FB9F
:101F2000F1F2624302E02200264842431868400270
:101F300001D5110003E050000321B0FBF1F12DE0C9
:101F40001948006840F202320240B2F5817F02D1A6
:101F50004FF4004116E010F44072B2F5007F06D154
:101F6000194A1268920702D549F640410AE010F476
:101F70004070B0F5407F05D10E480068800301D560
:101F80004FF224410AE0FFF738FA09490968C1F322
:101F90008131491C4900B0FBF1F1FFE7080032BD77
:101FA0001C100240007000402010024040044242D9
:101FB000041002400010024050450008BA420008D8
:101FC00000127A0000093D002410024010B50446BA
:101FD00010460A460146204600F0DAFA204610BDB7
:101FE000F8B502000023002514E0DFF8CC010668F4
:101FF00036EA040404600CE0DFF8C0010668A6437A
:1020000006604868C003F0D5DFF8AC0106683443C9
:1020100004605B1C0868D840002800F0B8800126E6
:102020009E400C683440B442F3D14868002827D061
:1020300001281AD002281DD003282FD0112816D02D
:1020400012281AD05E4FB8421AD05E4FB84217D04D
:102050005D4FB84214D05D4FB84211D05C4FB842CA
:102060000ED05C4FB8420BD01AE0CD6818E0CD68B6
:102070002D1D15E0CD68083512E0CD680C350FE058
:102080008868002801D1042507E08868012802D16A
:102090000825166101E00825566101E00025FFE7EB
:1020A000B4F5807F01D2170000E0171DB4F5807FE2
:1020B00002D25FEA830C03E0B3F1080C5FEA8C0CF8
:1020C0000F26D7F800E016FA0CF03EEA000E15FADB
:1020D0000CFC5CEA0E0CC7F800C04868C00098D53C
:1020E0003D48076857F001070760006810F00100DD
:1020F00000900098394F1800800857F820C013F05E
:102100000300C0B2800086403CEA060C344882429C
:1021100001D100260FE03348824201D101260AE0B6
:102120003148824201D1022605E03048824201D185
:10213000032600E0042613F00300C0B280008640AE
:1021400056EA0C0C1800800847F820C04868C00206
:1021500004D5274806682643066003E0244806683D
:10216000A64306604868800204D5224806682643D4
:10217000066003E01F480668A643066048688003BF
:102180007FF53AAF0D4806682643066039E7F1BD92
:10219000806889B2084201D0012000E00020C0B26E
:1021A0007047D2B2002A02D089B2016102E089B23E
:1021B000090401617047000000040140040401406B
:1021C0000000111000001210000021100000221069
:1021D00000003110000032101810024008000140C9
:1021E00000080140000C01400010014000140140B3
:1021F000080401400C04014018B585B010220021EC
:1022000001A8FFF7E3FED848016851F02001016002
:10221000016811F0200100910099016851F004015A
:102220000160016811F0040100910099016851F00A
:1022300008010160006810F0080000900098CB4C85
:1022400000224FF480712000FFF7ABFF4FF4807045
:10225000019001200290002003900220049001A927
:102260002000FFF7BDFE06B010BD10B500F0E0F98C
:1022700000F034F800F015F900F0F7F800F074F809
:1022800000F0D9F800F09CF8FFF7B6FF002000F04E
:10229000EDF900F00BFBB64C200000F056FB206877
:1022A0000069C007FBD57FF001002168086100F0DC
:1022B00071FC00F031FD00F0B0FD00F0F1FD00F028
:1022C00016FE00F055FE01F03FF800F061FA00F054
:1022D000BFFA01F0EDF800F041FDE0E700B593B082
:1022E0002822002109A8FFF771FE14220021684668
:1022F000FFF76CFE1022002105A8FFF767FE012002
:1023000009905FF480300A9000210B9101210D911A
:102310000221109111905FF48020129009A8FEF71D
:10232000ADFD002801D000F031F90F20009002200F
:1023300001900020029000200390002004900021D2
:102340006846FEF784FF002801D000F01FF9022044
:1023500005900020079005A8FFF74AFD002801D04E
:1023600000F014F913B000BD1FB50C22002168461F
:10237000FFF72CFE7F4C804820600020A0600020EA
:102380002073002020755FF46020E0610020606011
:10239000012020612000FFF735F9002801D000F06E
:1023A000F5F800200090012001900020029069467D
:1023B0002000FFF70CFB002801D000F0E7F81FBD5C
:1023C00010B586B01022002102A8FFF7FFFD0822F9
:1023D00000216846FFF7FAFD654C5FF08040206001
:1023E000182060600020A06041F28830E06000208A
:1023F00020610020A061200000F070FA002801D0C8
:1024000000F0C4F84FF48050029002A9200000F0C0
:10241000D3FA002801D000F0B9F800200090002085
:1024200001906946200001F0A9F8002801D000F0D1
:10243000ADF806B010BD80B55048514901605FF459
:10244000E1314160002181600021C1600021016112
:102450000C214161002181610021C161FDF746FE2F
:10246000002801D000F092F801BD80B54548016810
:1024700051F001010160006810F001000090009827
:10248000002200210E20FFF792F80E20FFF7A0F89F
:10249000002200210F20FFF78AF80F20FFF798F89D
:1024A00001BD78B585B0102200216846FFF78EFD8A
:1024B0002D48016851F020010160016811F02001F0
:1024C00004910499016851F004010160016811F060
:1024D000040104910499016851F008010160006849
:1024E00010F0080004900498204C00224FF4C071B2
:1024F0002000FFF756FE48F23606234D0022310039
:102500002800FFF74EFE4FF4C070009001200190AC
:10251000002002900220039069462000FFF760FD32
:10252000009601200190002002900220039069464D
:102530002800FFF755FD4FF4E04000900020019087
:102540000020029069462800FFF74AFD4FF48050B2
:102550000090002001900020029069462000FFF7C3
:102560003FFD06B070BD0000181002400008014099
:10257000D4020020A4030020002401401801002000
:102580000038014014100240000C014072B6FEE712
:1025900062F30F2262F31F42401810F0030308D0C9
:1025A000C91A1FD3DB0748BF00F8012D28BF20F848
:1025B000022D130030B414461546103928BF20E907
:1025C0003C00FAD8490728BF20E90C0048BF40F872
:1025D000042D890028BF20F8022D48BF00F8012DE6
:1025E00030BC7047C91818BF00F8012DCB0728BFB1
:1025F00000F8012D704730B4002513E050F8042B8B
:10260000D30744BFA9F101039A18091F042942F80E
:10261000045BFAD213468C0744BF15809B1CC90784
:1026200048BF1D7050F8041B0029E7D130BC70472B
:1026300080B50748016851F0100101600320FEF7E2
:10264000B2FF0F20FEF722FFFFF7EAFA002002BDDB
:102650000020024080B5002901D0012200E00022C4
:10266000D2B220214448FFF79CFD01BD10B5434C78
:102670000FF2150201212000FDF77EFD8022404966
:102680002000FDF71FFE10BD80B500210020FFF7E0
:10269000E1FF01BD70B505000E0014000121280006
:1026A000FFF7D8FF220092B231003448FDF7C0FD99
:1026B000344829010144C968641829010844C460E8
:1026C00070BD2E4890F84100212801D1012000E082
:1026D0000020C0B270472948C06B00684068D0F144
:1026E0008000802801DB002006E02749096881423C
:1026F00001D1002000E00120704770B504002000E7
:10270000FFF7E9FF002801D1002033E01E491C48F3
:102710000A68805C0A68521C0A600A68802A01D331
:1027200000220A60174922010A449268521C2301C0
:102730000B449A60154D2B88104AD66B3668766824
:102740002E802D889BB2AB4213D013681B685B07A9
:1027500004D52301CB585B1C25014B51126812682C
:10276000920706D522010A445268521C23011944DB
:102770004A60C0B270BD0000000C0140180100208A
:102780000C0000206C040020F4040020340500201C
:1027900000B585B04048016840F6D142914201D26F
:1027A000012200E00022006840F63551884201D243
:1027B000012100E000210120049001200390C820A5
:1027C00002900120019001200090C823D2B2C9B22A
:1027D000324800F021FF00F004F800F038F805B0AE
:1027E00000BD70B5002400252CE0002429E02C4E0B
:1027F00001232822012106EBC50000F08EFF0123F2
:102800002822012106EBC500103000F086FF0123CD
:102810002822012106EBC500203000F07EFF002CAD
:102820000ED116F8350000280AD106EBC500007C51
:10283000002805D106EBC50090F820000028D4D070
:1028400001246D1C022DD2DB1548046370BD704756
:102850001449134A506F0860906F002801D002207D
:1028600000E0002082F8680092F86800002803D099
:10287000022807D003D308E00020486005E00120CB
:10288000486002E0084800684860106F8860D06EB9
:10289000C860D06F086170477C040020F000002001
:1028A000980000205804002020050020704730B414
:1028B0000EE00268436802440830DC0744BFA9F117
:1028C0000104E31852F8045B43F8045B091FF9D1D3
:1028D00050F8041B0029ECD130BC704710B504003F
:1028E000002C01D101202FE094F83D00002805D1F3
:1028F000002084F83C002000FFF7D9F9022084F87A
:102900003D00211D206800F0CEF8012084F846002B
:10291000012084F83E00012084F83F00012084F863
:102920004000012084F84100012084F84200012089
:1029300084F84300012084F84400012084F8450015
:10294000012084F83D00002010BD90F83D100129C1
:1029500001D0012029E0022180F83D100168DFF854
:102960004C2091420DD00168B1F1804F09D001682F
:10297000DFF83C20914204D00168DFF83820914212
:102980000CD10168896811F0070106290CD0016893
:10299000096851F001010068016005E001680968FB
:1029A00051F001010068016000207047002C0140D7
:1029B000000400400008004038B50400002594F8E9
:1029C0003C00012801D102206CE0012084F83C0089
:1029D000022084F83D002068806830F0770030F4F1
:1029E0007F4022689060086800284DD010284BD0A6
:1029F000202849D0302847D040283BD0502825D027
:102A000060282DD0702807D0B0F5805F03D0B0F5D6
:102A1000005F0ED03DE03DE0CB684A6889682068E1
:102A200000F0ADF82068806850F077002168886079
:102A300030E0CB684A688968206800F0A0F8206818
:102A4000806850F480402168886023E0CA68496843
:102A5000206800F067F85021206800F088F819E03D
:102A6000CA684968206800F06FF86021206800F0AB
:102A70007EF80FE0CA684968206800F053F84021EA
:102A8000206800F074F805E00968206800F06FF82D
:102A900000E00125012084F83D00002084F83C007E
:102AA0002800C0B232BD10B403681B4CA04208D04D
:102AB000B0F1804F05D0194A904202D0184A904296
:102AC00003D133F070034A681343A04208D0B0F139
:102AD000804F05D0114A904202D0114A904203D152
:102AE00033F44073CA68134333F080034A691343D5
:102AF00003608A68C2620A688262A04201D10969E1
:102B00000163012141610169C90703D501694908D0
:102B10004900016110BC7047002C014000040040D6
:102B20000008004010B4046A036A5B085B0003629B
:102B3000836933F0F00353EA021334F00A042143AB
:102B40008361016210BC704710B4046A036A33F0F9
:102B500010030362836933F4704353EA023334F0A1
:102B6000A00454EA01148361046210BC70478268B7
:102B700032F0700251F0070111438160704710B4C8
:102B8000846834F47F44114351EA03212143816076
:102B900010BC70475448D0E90023521C73F1FF3336
:102BA000C0E9002351490868401C08600A200A68EF
:102BB0000B68B3FBF0F300FB1320002803D10120C6
:102BC0004B4A106002E00020494A106014200A6855
:102BD0000B68B3FBF0F300FB1320002803D10120A6
:102BE000444A106002E00020424A106064200A68F3
:102BF0000B68B3FBF0F300FB1320002803D1012086
:102C00003D4A106002E000203B4A1060C8200A687C
:102C10000B68B3FBF0F300FB1320002803D1012065
:102C2000364A106002E00020344A106042F6E0604C
:102C30000A680B68B3FBF0F300FB1320002803D1F4
:102C400001202F4A106002E000202D4A10602C481D
:102C50000068002801D00020086026490868002884
:102C600008D0284A1068002802D10120106001E035
:102C70000020106020480068002808D0224A106810
:102C8000002802D10120106001E0002010601B48E4
:102C90000068002808D01D4A1068002802D10120D1
:102CA000106001E000201060086800281AD0184861
:102CB0000168491C01600168142901DB00210160E1
:102CC00000680A280BDA10480068002803D10120A8
:102CD0001049086006E000200E49086002E000206C
:102CE0000C49086070470000E8040020300500200F
:102CF000080500200C050020100500201405002008
:102D0000180500201C0500202005002024050020B7
:102D10002C0500202805002038B5594C4FF480516F
:102D20002000FFF735FA002801D1012000E0002043
:102D3000544DC0B228604FF400512000FFF728FA2C
:102D400068604FF480412000FFF722FAA8604FF43A
:102D500080514D48FFF71CFAE86031BD38B54B4C47
:102D60002068002801D0012200E00022464DD2B2A6
:102D700080212800FFF715FA6068002801D00122A1
:102D800000E00022D2B24FF480712800FFF709FA68
:102D9000A068002801D0012200E00022384DD2B204
:102DA00004212800FFF7FDF9E068002801D0012286
:102DB00000E00022D2B24FF400412800FFF7F1F901
:102DC0002069002801D0012200E00022D2B20221B5
:102DD0002800FFF7E6F931BD1FB504000C220021E1
:102DE0006846FFF7F3F8009401200190002002905C
:102DF000274C69462000FEF7EAFD002801D0FFF7C6
:102E0000C5FB2000FEF79AFC01212000FEF727FDFC
:102E10002000FEF7D9FD04B010BD10B51D4C0020F8
:102E2000FFF7DAFF20600120FFF7D6FF6060022085
:102E3000FFF7D2FFA0600320FFF7CEFFE06000F0B5
:102E400001F810BD10B5134C206800F012F8206096
:102E5000114861684143090B6160A16800FB01F002
:102E6000000BA060E16840F6E4404143090BE160DB
:102E700010BD80B5094A0D2180B200F05FFC02BD93
:102E8000000C01409C040020000801405804002070
:102E9000A4030020AC040020B40E01001844000874
:102EA00038B52D4C2D4D0423042228680100C9B2E9
:102EB000200000F032FC0423042268680100C9B23B
:102EC00014F1080000F029FC04230422A868010082
:102ED000C9B214F1100000F020FC04230422E868B9
:102EE0000100C9B214F1180000F017FC31BD1C4AF2
:102EF0001C490B681068C3180B604B685068C318F6
:102F00004B608B689068C3188B60CB68D068C3181F
:102F1000CB601548006800281CD014480A68642358
:102F2000B2FBF3F2026000220A604A686423B2FB3B
:102F3000F3F2426000224A608A686423B2FBF3F233
:102F4000826000228A60CA686423B2FBF3F2C26026
:102F50000020C86070470000000400209C0400208E
:102F6000AC0400208C040020100500207C0400200C
:102F7000F8B584B000244EE000210AE0DFF8A06339
:102F8000002046F824002000FFF7A5FB0028F3D11D
:102F90000121DFF8907301200390012002900120AD
:102FA00001900320009001230322C9B207EBC40063
:102FB00000F07BFBDFF8705355F82400002829D07F
:102FC00017F83400002825D056F82400002821D115
:102FD00000F0C8F801212000FFF73CFB0C20DFF8CF
:102FE0004C1300FB04F20A44926800FB04F00958F9
:102FF0002000FFF74FFB002045F824001420DFF8E5
:10300000301300FB04F20A449268521C00FB04F0E7
:1030100008448260641C012CB0DB05B0F0BD70B5C3
:1030200004002000FFF74DFB002801D0002039E00C
:10303000DFF8F41251F8240000280ED0002041F8E7
:1030400024001420DFF8E81200FB04F20A44D268DE
:10305000521C00FB04F00844C260DFF8D0520C267A
:10306000DFF8D0026A2101FB04F1084406FB04F1F9
:1030700068506A2006FB04F129444860002006FBE2
:1030800004F129448860AC4906FB04F0284400F0B0
:10309000C5FB002106FB04F0284400F09AFB7443B2
:1030A00005EB040070BD70B504000C259F4E05FBB8
:1030B00004F03058002805D005FB04F03044806847
:1030C000072802DA5FF0FF304BE02000FFF7F9FA43
:1030D000002802D07FF0010043E005FB04F03044FB
:1030E0008068401F05FB04F17158087105FB04F06E
:1030F0003044816805FB04F0305800F07BFA010091
:10310000C9B205FB04F0304400F063FB854810F8B9
:103110003400002820D0824850F8240000281BD119
:1031200000F020F801212000FFF794FA05FB04F0DD
:103130003044826805FB04F571592000FFF7AAFAB4
:1031400014207B4900FB04F20A449268521C444359
:1031500001EB0400826003E00120734941F8240080
:10316000002070BD00207549886000207449086007
:1031700070472DE9F0410400002019E006FB04F03F
:10318000385890F80480B8F1650F73DB002045F8DB
:103190002400002006FB04F607EB060188601420DB
:1031A000634900FB04F28A58521C00FB04F00A50E9
:1031B000634D55F8240000282BD10C205F49614A4B
:1031C0006A2303FB04F31A4400FB04F3CA506A2287
:1031D00000FB04F30B445A60002200FB04F0084497
:1031E000826016E02000FFF788FA55F82410C0B27C
:1031F00050EA012045F8240055F82400B04208D1D7
:1032000055F824104D480C2202FB04F2104400F043
:1032100005FB494E55F82400B04212D02000FFF7BC
:103220005AFA0028DED10020BDE8F0812000FFF727
:1032300064FA0100C9B206FB04F607EB060000F0D1
:10324000C8FA0C263D4F06FB04F038448068082875
:1032500094DA2000FFF73FFA0028E7D10020E3E7E7
:103260002000FFF74AFA0100C9B206FB04F0384417
:1032700000F0AFFA06FB04F03844806818F106014C
:10328000884206DA2000FFF726FA0028E8D100205D
:10329000CAE7002045F8240006FB04F038448168A2
:1032A000491E06FB04F0385800F0A4F9050006FB9F
:1032B00004F038448068401E06FB04F139448860FD
:1032C00006FB04F0384400F00BFBADB280B285423F
:1032D00009D01420164900FB04F28A58521C00FB46
:1032E00004F00A5064E706FB04F038448068401E8E
:1032F00006FB04F139444860052006FB04F139441B
:10330000886014200A4900FB04F20A445268521CE7
:1033100000FB04F008444260744307EB040083E7B9
:1033200000050020E0040020FC040020C804002068
:1033300020040020FC010020BEE4CF96D40400202D
:10334000F80400206802002080B50020FFF711FF7C
:103350005A4A002100F033F801BD0300DBB2012B13
:1033600007D1C9B20F2902D1D2B20B2A0BD000204B
:103370000AE0C0B2002804D1D2B20B2A03D0002048
:1033800002E0002000E0012070470300DBB2012BC7
:1033900009D1C9B20F2901D000200FE0D2B20B2A07
:1033A0000BD100200AE0C0B2002804D1D2B20F2A0B
:1033B00003D0002002E0002000E0012070472DE94A
:1033C000F84304000F009046002C3FD0200000F08E
:1033D00087FA0600B1465FFA89F95FEA191916F013
:1033E0000F052A00D2B24946C9B23800C0B2FFF771
:1033F000CCFF00281AD0324F324838606A207860FB
:103400000020B8603100C9B2380000F0E2F962680B
:10341000A068121A2068A1680144380000F02CFA54
:10342000294805700120294908600FE02A00D2B21E
:103430004946C9B23800C0B2FFF78FFF002805D057
:1034400042463100C9B2200000F002F8BDE8F18325
:1034500038B50C001500002185F825102100C9B2EF
:10346000E960290000F095FA010009B2002900D1B5
:103470000120010040F2011209B2914217D000B2BE
:10348000012802D195F82500002895F8250000288C
:103490000DD095F8250085F824002000C0B2000961
:1034A000C0B2E4B2240114F0F0040443AC6031BDB6
:1034B00080B5024800F016F801BD0000D4030020DA
:1034C000BC0400209001002036050020F0040020FC
:1034D00080B50020FFF7A3FD02BD80B50020FFF7F7
:1034E000E2FD01BD38B50500A86A012803DBA86A22
:1034F000401EA86241E095F8240000283DD0287ABB
:1035000010F00F00FFF7E4FF0400002C35D0A8688E
:103510000100C9B2200000F05CF9200000F04DF974
:103520002900200000F038FB010009B2B1F5807FCE
:1035300023D0010040F2011209B2914205D10020CE
:103540002860002085F8240017E0010009B2002956
:1035500000D1012000B2012805D000202860002001
:1035600085F8240009E000202860002085F8240068
:10357000287A10F00F00FFF7B0FF31BD10B490F8BB
:103580003C20012A01D102202CE0012280F83C20BD
:10359000022280F83D20026854680268936834F083
:1035A00070040A6814430268546002680E4CA24218
:1035B0000BD00268B2F1804F07D002680B4CA242D8
:1035C00003D002680A4CA24205D133F08003496857
:1035D0000B4301688B60012180F83D10002180F8C9
:1035E0003C10002010BC7047002C0140000400403B
:1035F0000008004010B402000020002405E0C0B222
:10360000135D5840034B185C641C8C42F7DBC0B25E
:1036100010BC7047BC42000810B400244470047809
:10362000002C21D0D2B2002A12D0BDF91020BDF951
:103630000C10436812B2D2184260426809B28A4242
:1036400031DB0021416000210170012141702AE03D
:10365000BDF91410426809B2511A4160416800294D
:1036600021D5002141601EE0C9B2002910D0BDF96A
:103670000410426809B28918416041681BB299423E
:1036800011DB0021416001210170012141700AE03C
:10369000BDF90810426809B2511A41604168002919
:1036A00001D50021416010BC704730B40024447043
:1036B0000C000578E4B2AC4212D10178002903D1A4
:1036C000BDF9081009B202E0BDF9141009B2426850
:1036D000511A4160416800291DD5002141601AE05E
:1036E0000478002C01D11BB202E0BDF910301BB2EE
:1036F00044681B1943600378002B01D112B202E029
:10370000BDF90C2012B24368934204DB00224260F0
:1037100001700121417030BC70471FB51C0024B2FC
:103720000394012402941BB2019313001BB2009373
:10373000012312B2C9B2FFF7B8FF1FBD30B40300B6
:10374000002000E0401C884205D21C0032F82050C6
:10375000A4B2AC42F6D2002801D1508826E04C1E1B
:10376000A0421FD232F8201002EB800434F8044C3F
:103770000C1B02EB8001498802EB800535F8025CE6
:103780004D1B9BB202EB800131F8041C5B1A6B43AA
:1037900093FBF4F102EB800030F8020C41180800B2
:1037A00080B203E002EB810030F8020C30BC7047BD
:1037B000010048688968401A70478068704700298E
:1037C00006D44268914202DB4168816000E081607A
:1037D000704738B504000D002000FFF7E9FF01280D
:1037E00005DB2068A1684554A068401CA06031BD7D
:1037F00038B504000D002000FFF7DAFF02280CDBCB
:10380000280080B2000A2168A26888542068A16854
:1038100008444570A068801CA06031BD38B5040024
:103820000D002000FFF7C4FF042817DB2800000E5E
:103830002168A26888542800000C2168A2681144FD
:1038400048702800000A2168A26811448870206826
:10385000A1680844C570A068001DA06031BD80B596
:10386000B1F5803F04D34FF6FF71FFF7C1FF02E0CF
:1038700089B2FFF7BDFF01BDF8B504000D001600C9
:103880002000FFF795FFB0420BDB32002068A168F3
:1038900000EB01072900380000F078FAA06836181C
:1038A000A660F1BD70B505000E0014002800FFF7FA
:1038B0007FFFA04201DB002C00D110E0002100E0DE
:1038C000491CA14208DA2868AA688A18735C8354E4
:1038D000705C0028F4D1491CA8680918A96070BD63
:1038E00010B504002000FFF763FF012801DA002073
:1038F00006E02068A168405CA168491CA160C0B2D4
:1039000010BD10B504002000FFF752FF022801DAB5
:1039100000200CE02068A168415C2068A268104487
:10392000407850EA0120A168891CA16080B210BDD6
:1039300010B504002000FFF73BFF042801DA002047
:1039400017E02068A168415C2068A26810444078B4
:10395000000410EB01602168A2681144897810EB23
:1039600001202168A2681144C9780818A168091DBE
:10397000A16010BDBFF34F8FDFF8E0130A6812F4A7
:10398000E062DFF8DC0302430A60BFF34F8F00BF41
:10399000FDE738B504000D002000FFF7A1FF00226D
:1039A00000E0521C052A0DD2DFF8B83353F832106C
:1039B0008842F6D12900200003EBC20252689047EA
:1039C00000B200E0022032BD70B504000D002000FE
:1039D000FFF7EEFE012801DA04201FE02000FFF7C8
:1039E0007FFF032185F825100023020092B280B2E8
:1039F0000100280000F0EDF8002606E02000FFF7A7
:103A00006FFF05EB06010874761C102E04DA200007
:103A1000FFF7CEFE0128F1DA2E62012070BD10B54D
:103A200004002000FFF7C4FE1D2801DA042024E072
:103A30002000FFF7C2FE163001002000FFF7BFFE96
:103A40002000FFF74DFFC8490200D21112F0010219
:103A5000CA660200921112F001020A6702005211B6
:103A600012F001024A670200121112F001028A6785
:103A7000801010F00100C867012010BDFEB50700DE
:103A80000C003800FFF794FE0A2801DA04204FE00A
:103A90003800FFF74DFFB549884201D0052047E0C7
:103AA0003800FFF745FF05003800FFF72AFF060042
:103AB0003100280000F038FA002801D1052037E055
:103AC0003800FFF775FEB04201D2042030E031002B
:103AD000280000F046FA002801D1062028E03A002C
:103AE0003100280000F050FA002801D106201FE024
:103AF000032084F82500002392229221200000F068
:103B000068F814F11000009010200190002002903D
:103B100001216846FFF75DFE29006846FFF77EFE3B
:103B2000310089B26846FFF763FE029820620120E7
:103B3000FEBD10B504002000FFF73AFE042801DAAC
:103B400004200CE02000FFF7F3FE8849884201D0F2
:103B5000052004E08649874800F06CF9012010BD7B
:103B600010B504002000FFF723FE042801DA04202A
:103B700011E02000FFF7DCFE7C49884201D00520DF
:103B800009E0012000F093F9002801D1062002E0AD
:103B9000FFF7F0FE012010BD38B504000D002868C5
:103BA0000100C9B22000FFF714FE002200E0521C01
:103BB000042A0CD2704B286853F832108842F6D190
:103BC0002900200003EBC2025268904700E0032066
:103BD00032BD10B4002807D090F82540022C05D142
:103BE000016000210162836210BC704790F82510CB
:103BF000032901D10260F4E7F6E710B504000121C2
:103C00002000FFF7F5FD01212000FFF7F1FD202244
:103C10005A492000FFF746FE012010BD70B5040090
:103C200001212000FFF7E4FD554A1078002801D05B
:103C3000802100E00021107A002801D0402300E01C
:103C40000023107C002801D0202500E00025107EF4
:103C5000002801D0102000E000201943294301432F
:103C6000C9B22000FFF7B5FD464A1068002801D010
:103C7000802100E000215068002801D0402300E0AE
:103C800000239068002801D0202500E00025D0689E
:103C9000002801D0102600E000261069002801D07D
:103CA000082000E000201943294331430143C9B2F1
:103CB0002000FFF78EFD344D29682000FFF7CFFD6F
:103CC00069682000FFF7CBFDA9682000FFF7C7FD5A
:103CD000E9682000FFF7C3FD012070BD80B50A6AC6
:103CE0001031FFF7C9FD012002BD7FB5040011F1BD
:103CF00010000090086A0190002002906846FFF7CB
:103D000057FD0A2801DA042026E06846FFF710FE76
:103D10001649884201D005201EE06846FFF708FEDC
:103D200005006846FFF7EDFD06003100280000F0B1
:103D3000FBF8002801D105200EE029002000FFF744
:103D40006DFD310089B22000FFF752FD32002900DD
:103D50002000FFF791FD012004B070BD0CED00E0E4
:103D60000400FA054C44000898000020901FE3BCB2
:103D700000E0010800000108C044000828450008D0
:103D800000040020580400207C04002062B38B074C
:103D900008D0521E11F8013B00F8013B00F02480CE
:103DA0008B07F6D1830740F0208000BF103A07D37D
:103DB00030B4B1E83810103AA0E83810F9D230BC6D
:103DC000530724BFB1E80810A0E8081044BF51F819
:103DD000043B40F8043BD20724BF31F8022B20F803
:103DE000022B44BF0B7803707047121F17D35B0080
:103DF00009D151F8043B20F8023B1B0C121F20F89C
:103E0000023BF6D20BE051F8043B00F8013B1B0AE1
:103E100020F8023B1B0C121F00F8013BF3D238BF05
:103E2000121D521E24BF11F8013B00F8013BF8D8C7
:103E30007047010230B585B005000C00002000205D
:103E40000090002000F025F9641BA40A00200190D6
:103E50000395012002900494694601A800F0A4F99A
:103E6000040000F026F9E4B2002C01D0012000E0AB
:103E7000002005B030BD70B403005FF0FF300024B7
:103E80000CE010F00102524206001000214A1040DE
:103E900090EA56006D1E002DF3D5641C8C4203DAA7
:103EA0001A5D50400725F6E7C04370BC704738B52F
:103EB000002419490D68291F4DF6E972914202D379
:103EC0005FF0FF301BE0002804D0291F1348FFF7E4
:103ED000D2FF03E0291F1248FFF7CDFF11494D190A
:103EE000002204E0240229780C436D1C521C042A91
:103EF000F8DBA04201D1002001E07FF0010032BDDB
:103F00000649401AB0F5604F01D3002000E00120BF
:103F1000704700002083B8EDFCDF010800000108B5
:103F200000200008FCFF000838B504000D00200048
:103F3000FFF7E6FF002801D1002011E0E405E40DC1
:103F400014F0030F02D115F0030F01D0002007E099
:103F50002C1940F20120844201D3002000E001200E
:103F600032BD002801D100200DE0091800E0801CBE
:103F7000884207D2028892B24FF6FF739A42F6D077
:103F8000002000E001207047F8B505000C00160085
:103F9000002D01D1002026E000F07BF864192F00ED
:103FA000350004E03888B6B2864215D1BF1CA7425E
:103FB00012D22800FFF794FC06002800FFF790FCBF
:103FC00056EA0026320092B200233900012000F0A8
:103FD0000BF80028E6D0FFE700F06BF8A74201D20B
:103FE000002000E00120F2BD2DE9F04780460E00E0
:103FF00014001D00012000200020DFF89071387EA1
:10400000012801D1022042E0012038764CF2503ADA
:10401000504600F05FF80100C9B2002934D1B8F170
:10402000010F02D15FF0010807E0B8F1020F02D1E1
:104030005FF0020801E05FF004085FF0000901E0B2
:1040400019F1010949464246C9B2D2B291421BD286
:10405000200029005FFA89F95FEA091200F01EF9D1
:10406000010089B24846C0B216EB400000F028F8C3
:10407000504600F02FF846490A68520852000A607C
:104080000100C9B20029DBD000213976C0B2BDE8F9
:10409000F08700203E490A68120608D53E4A3F4B89
:1040A00013603F4B13600968090600D50120C0B2B8
:1040B00070473748016851F0800101600020704767
:1040C0000022324BDA61324A136853F00103136065
:1040D0000180704738B50400FDF7D2F905002D487E
:1040E0000168C9070BD514F1010FF8D0002C04D0DA
:1040F000FDF7C6F9401B8442F1D2032013E00168AA
:10410000890601D5202101600168C90606D4254928
:104110000968C90702D40068400703D500F004F815
:10412000012000E0002032BD10B4002119480268CF
:10413000D20606D5154AD36953F00203D36151F074
:1041400010010268520706D5104AD36953F00103E3
:10415000D36151F00401134B1A68D20708D50B4AFA
:10416000D46954F00404D4611A68520852001A60E9
:1041700040F20112914204D11868400840001860D2
:1041800000E0016010BC704700000000380400200F
:10419000102002400C200240042002402301674509
:1041A000AB89EFCD1C2002402DE9F84304000D003F
:1041B00001260020DFF8D870387E012801D10220C6
:1041C00047E0012038762068022814D14CF25034A0
:1041D0002000FFF77FFF002837D1012000F03BF8D7
:1041E0002000FFF777FF0600DFF8A800016831F034
:1041F0000401016029E04CF250384046FFF76AFFA5
:10420000002822D15FF0FF302860D4F8089001E048
:1042100019F58069E1684FF48062A06802FB010132
:10422000894512D2484600F023F84046FFF752FF76
:104230000600DFF86000016831F002010160300023
:10424000C0B20028E4D0C5F80090002038763000D5
:10425000C0B2BDE8F28300200D49C8610D48016875
:1042600051F004010160016851F0400101607047A4
:104270000021074AD16107490A6852F002020A6028
:10428000054A1060086850F0400008607047000060
:10429000380400201020024014200240D2B2203AFC
:1042A00022BF21FA02F0002170472032D141D040D4
:1042B00048409140D14048407047010200070E0934
:1042C0001C1B1215383F363124232A2D70777E7936
:1042D0006C6B6265484F464154535A5DE0E7EEE926
:1042E000FCFBF2F5D8DFD6D1C4C3CACD90979E9916
:1042F0008C8B8285A8AFA6A1B4B3BABDC7C0C9CE06
:10430000DBDCD5D2FFF8F1F6E3E4EDEAB7B0B9BEF5
:10431000ABACA5A28F88818693949D9A2720292EE5
:104320003B3C35321F18111603040D0A5750595ED5
:104330004B4C45426F68616673747D7A898E8780C5
:1043400095929B9CB1B6BFB8ADAAA3A4F9FEF7F0B5
:10435000E5E2EBECC1C6CFC8DDDAD3D4696E6760A5
:1043600075727B7C51565F584D4A4344191E171095
:1043700005020B0C21262F283D3A33344E49404785
:1043800052555C5B7671787F6A6D64633E39303775
:1043900022252C2B0601080F1A1D1413AEA9A0A765
:1043A000B2B5BCBB9691989F8A8D8483DED9D0D755
:1043B000C2C5CCCBE6E1E8EFFAFDF4F3FEE7FEE799
:1043C000FEE7FEE7FEE770477047704780B500F0F4
:1043D00017F801BD80B50748FCF777FC01BD80B533
:1043E0000548FCF772FC01BD80B50448FBF77FFF70
:1043F00001BD0000600300201C0300201801002004
:1044000003490A680348007882180A60704700BFB1
:1044100004050020080000200301930E4D01390E11
:10442000A301E90D5102710D3003030D1F04A90C06
:10443000DC05270CC609410B860C970ADC0D290AFE
:10444000B70EC5093B0F6B09880F1B09F000000070
:10445000C9390008820000001F3A0008120000005D
:104460007D3A000813000000333B000814000000F0
:10447000613B000810B5074979441831064C7C446B
:10448000163404E00A68081D114488470146A14219
:10449000F8D110BD08000000280000005BE1FFFF1C
:1044A0002C0500000C0000200000000003E4FFFFCA
:1044B0000C000000D80000000000002000000000F8
:1044C000810000001D3C000892000000DD3C000857
:1044D00091000000EB3C00088F000000FB3B00084F
:1044E00000F00DF8002801D0FFF7C4FFAFF3008003
:1044F0000020AFF30080FDF7B8FE00F002F80120C5
:10450000704700F001B870470746384600F002F8DF
:10451000FBE7704780B5AFF30080024A1100182016
:10452000ABBEFBE7260002004D353734382D363060
:104530003120436861726765722064302E3031002B
:1045400002030405060708090A0B0C0D0E0F1010D4
:1045500002030405060708090A0B0C0D0E0F1010C4
:104560000000000000000000010203040607080923
:10457000014880470148004751460008814500082E
:10458000AFF30080AFF30080FFF7AAFF1000000038
:1045900000127A00010000007047000000000000D7
:1045A00001020304FFF7FEBFFFF7FEBFFFF7FEBFE8
:1045B000FFF7FEBFFFF7FEBFFFF7FEBFFFF7FEBF2F
:1045C000FFF7FEBFFFF7FEBFFFF7FEBFFFF7FEBF1F
:1045D000FFF7FEBFFFF7FEBFFFF7FEBFFFF7FEBF0F
:1045E000FFF7FEBFFFF7FEBFFFF7FEBFFFF7FEBFFF
:1045F000FFF7FEBFFFF7FEBFFFF7FEBFFFF7FEBFEF
:10460000FFF7FEBFFFF7FEBFFFF7FEBFFFF7FEBFDE
:10461000FFF7FEBFFFF7FEBFFFF7FEBFFFF7FEBFCE
:10462000FFF7FEBFFFF7FEBFFFF7FEBFFFF7FEBFBE
:10463000FFF7FEBFFFF7FEBFFFF7FEBFFFF7FEBFAE
:10464000FFF7FEBF7047704770477047704770476D
:024650007047B1
:040000050800458129
:00000001FF
